:020000040000FA
:060000002AEF01F01200DE
:0A00060001007202000080000000FB
:0400100048000000A4
:0C001400D9CFE6FFE1CFD9FF040EE126B2
:10002000FD0EDBCF02F0FE0EDBCF03F0033404E263
:1000300002500008000E035423E2DE6ADE6ADE6A24
:10004000DD6ADD52DD52D9CFE9FFDACFEAFF500E8B
:10005000EE5C000EEE58000EEE58000EEE580AE26E
:10006000D9CFE9FFDACFEAFFEE2A000EEE22EE2228
:10007000EE22E9D7FD0EDB06FE0E01E2DB06D0D74D
:10008000040EE15C02E2E16AE552E16EE552E7CF7F
:10009000D9FF1200D9CFE6FFE1CFD9FF040EE12648
:1000A000DE6ADD6A020EDB6A030EDB6A926A936A1D
:1000B000946A956A020EDB6A030EDB6A020EDBCFDE
:1000C00002F0030EDBCF03F0D890035004E6350EA8
:1000D000025C000E035854E2DE6ADD6ADECF02F0F5
:1000E000DDCF03F0D890035004E6070E025C000E4B
:1000F000035840E2DECFE9FFDDCFEAFFD890E936D2
:10010000EA36B80EE926000EEA22EF508C6E020E97
:10011000DBCF02F0030EDBCF03F0DE500224E96EEA
:10012000DD500320EA6E800EE926000EEA22EF5031
:100130008A6E020EDBCF02F0030EDBCF03F0DE503F
:100140000224E96EDD500320EA6E070EE95E000E20
:10015000EA5A800EE926000EEA22EF508B6E010E5D
:10016000E66EE66A57DFE552E552DF2A010E01E34B
:10017000DB2AB4D7020EDB2A030E01E3DB2A9ED76B
:1001800099D7040EE15C02E2E16AE552E16EE552C4
:06019000E7CFD9FF1200C9
:0A019600060EF66E000EF76E000E66
:1001A000F86E00010900F550CD6F0900F550CE6FD3
:1001B00003E1CD6701D03DD00900F550C86F0900BB
:1001C000F550C96F0900F550CA6F09000900F550D4
:1001D000E96E0900F550EA6E090009000900F550C2
:1001E000CB6F0900F550CC6F09000900F6CFCFF0B6
:1001F000F7CFD0F0F8CFD1F0C8C0F6FFC9C0F7FFF5
:10020000CAC0F8FF0001CB5302E1CC5307E009005C
:10021000F550EE6ECB07F8E2CC07F9D7CFC0F6FF6A
:10022000D0C0F7FFD1C0F8FF0001CD07000ECE5BB4
:04023000BFD7120022
:0C023400000EF36E00EE00F0060E01D884
:100240001200EA6002D0EE6AFCD7F350E9601200B7
:04025000EE6AFCD77F
:0C02540015EE00F025EE00F0F86A019CA9
:10026000CBEC00F038EC01F04AEC00F0FBD71200C8
:0202700012007A
:0E027200FFFFFFFFFFFFFFFFFFFEFE00FEFE8F
:10028000FFFF00E7E700FFFF7E7E007E7EFFFF01AD
:10029000CECE01FFFFC3007E6E0EFFFFC3817E7EC8
:1002A00081C3FFFFFFFFFFFFFFFF0100020004000B
:0A02B00008001000200040000000CC
:020000040030CA
:0100010008F6
:00000001FF
